{
  "contractName": "KYC",
  "abi": [
    {
      "inputs": [],
      "stateMutability": "nonpayable",
      "type": "constructor"
    },
    {
      "anonymous": false,
      "inputs": [
        {
          "indexed": true,
          "internalType": "address",
          "name": "userID",
          "type": "address"
        },
        {
          "indexed": false,
          "internalType": "string",
          "name": "report_uri",
          "type": "string"
        }
      ],
      "name": "ChangeClientInfo",
      "type": "event"
    },
    {
      "anonymous": false,
      "inputs": [
        {
          "indexed": true,
          "internalType": "address",
          "name": "client",
          "type": "address"
        },
        {
          "indexed": false,
          "internalType": "uint256",
          "name": "client_end_date",
          "type": "uint256"
        }
      ],
      "name": "FlagExpiringKYC",
      "type": "event"
    },
    {
      "anonymous": false,
      "inputs": [
        {
          "indexed": true,
          "internalType": "address",
          "name": "userID",
          "type": "address"
        },
        {
          "indexed": false,
          "internalType": "string",
          "name": "report_uri",
          "type": "string"
        }
      ],
      "name": "NewClient",
      "type": "event"
    },
    {
      "inputs": [
        {
          "internalType": "address",
          "name": "",
          "type": "address"
        }
      ],
      "name": "Clientdatabase",
      "outputs": [
        {
          "internalType": "address",
          "name": "userID",
          "type": "address"
        },
        {
          "internalType": "string",
          "name": "report_uri",
          "type": "string"
        },
        {
          "internalType": "bool",
          "name": "used",
          "type": "bool"
        },
        {
          "internalType": "uint256",
          "name": "end_date",
          "type": "uint256"
        }
      ],
      "stateMutability": "view",
      "type": "function"
    },
    {
      "inputs": [],
      "name": "admin",
      "outputs": [
        {
          "internalType": "address",
          "name": "",
          "type": "address"
        }
      ],
      "stateMutability": "view",
      "type": "function"
    },
    {
      "inputs": [
        {
          "internalType": "uint256",
          "name": "",
          "type": "uint256"
        }
      ],
      "name": "clientList",
      "outputs": [
        {
          "internalType": "address",
          "name": "",
          "type": "address"
        }
      ],
      "stateMutability": "view",
      "type": "function"
    },
    {
      "inputs": [],
      "name": "start_date",
      "outputs": [
        {
          "internalType": "uint256",
          "name": "",
          "type": "uint256"
        }
      ],
      "stateMutability": "view",
      "type": "function"
    },
    {
      "inputs": [
        {
          "internalType": "address",
          "name": "userID",
          "type": "address"
        },
        {
          "internalType": "string",
          "name": "report_uri",
          "type": "string"
        }
      ],
      "name": "registerKYC",
      "outputs": [
        {
          "internalType": "bool",
          "name": "",
          "type": "bool"
        }
      ],
      "stateMutability": "nonpayable",
      "type": "function"
    },
    {
      "inputs": [
        {
          "internalType": "address",
          "name": "userID",
          "type": "address"
        },
        {
          "internalType": "string",
          "name": "newReportUri",
          "type": "string"
        }
      ],
      "name": "updateKYC",
      "outputs": [
        {
          "internalType": "string",
          "name": "",
          "type": "string"
        }
      ],
      "stateMutability": "nonpayable",
      "type": "function"
    },
    {
      "inputs": [
        {
          "internalType": "address",
          "name": "userID",
          "type": "address"
        }
      ],
      "name": "checkValidity",
      "outputs": [
        {
          "internalType": "string",
          "name": "",
          "type": "string"
        }
      ],
      "stateMutability": "view",
      "type": "function"
    },
    {
      "inputs": [],
      "name": "getClientCount",
      "outputs": [
        {
          "internalType": "uint256",
          "name": "count",
          "type": "uint256"
        }
      ],
      "stateMutability": "view",
      "type": "function"
    },
    {
      "inputs": [],
      "name": "clientLoop",
      "outputs": [],
      "stateMutability": "nonpayable",
      "type": "function"
    }
  ],
  "bytecode": "0x608060405234801561000f575f80fd5b503360035f6101000a81548173ffffffffffffffffffffffffffffffffffffffff021916908373ffffffffffffffffffffffffffffffffffffffff16021790555042600281905550611522806100645f395ff3fe608060405234801561000f575f80fd5b5060043610610091575f3560e01c80636a2fe7a5116100645780636a2fe7a51461010b578063a52b52301461013b578063b2ef42231461016b578063be2077871461019b578063f851a440146101ce57610091565b8063171ee9f31461009557806327d795d7146100c55780635a81018a146100e35780636a15ceee14610101575b5f80fd5b6100af60048036038101906100aa9190610c6b565b6101ec565b6040516100bc9190610d20565b60405180910390f35b6100cd61033b565b6040516100da9190610d58565b60405180910390f35b6100eb610341565b6040516100f89190610d58565b60405180910390f35b61010961034d565b005b61012560048036038101906101209190610d9b565b610628565b6040516101329190610dd5565b60405180910390f35b61015560048036038101906101509190610f1a565b610663565b6040516101629190610f8e565b60405180910390f35b61018560048036038101906101809190610f1a565b6108a6565b6040516101929190610d20565b60405180910390f35b6101b560048036038101906101b09190610c6b565b610a9c565b6040516101c59493929190610fa7565b60405180910390f35b6101d6610b78565b6040516101e39190610dd5565b60405180910390f35b60605f808373ffffffffffffffffffffffffffffffffffffffff1673ffffffffffffffffffffffffffffffffffffffff1681526020019081526020015f206002015f9054906101000a900460ff16610279576040517f08c379a00000000000000000000000000000000000000000000000000000000081526004016102709061103b565b60405180910390fd5b5f808373ffffffffffffffffffffffffffffffffffffffff1673ffffffffffffffffffffffffffffffffffffffff1681526020019081526020015f20600301544211156102fd576040518060400160405280601781526020017f4b5943207265706f7274206861732065787069726564210000000000000000008152509050610336565b6040518060400160405280601481526020017f4b5943207265706f72742069732076616c69642100000000000000000000000081525090505b919050565b60025481565b5f600180549050905090565b60035f9054906101000a900473ffffffffffffffffffffffffffffffffffffffff1673ffffffffffffffffffffffffffffffffffffffff163373ffffffffffffffffffffffffffffffffffffffff16146103dc576040517f08c379a00000000000000000000000000000000000000000000000000000000081526004016103d3906110c9565b60405180910390fd5b5f5b6001805490508110156106255762278d00426103fa9190611114565b5f80600184815481106104105761040f611147565b5b905f5260205f20015f9054906101000a900473ffffffffffffffffffffffffffffffffffffffff1673ffffffffffffffffffffffffffffffffffffffff1673ffffffffffffffffffffffffffffffffffffffff1681526020019081526020015f20600301541080156105095750620151804261048c9190611114565b5f80600184815481106104a2576104a1611147565b5b905f5260205f20015f9054906101000a900473ffffffffffffffffffffffffffffffffffffffff1673ffffffffffffffffffffffffffffffffffffffff1673ffffffffffffffffffffffffffffffffffffffff1681526020019081526020015f2060030154115b15610612576001818154811061052257610521611147565b5b905f5260205f20015f9054906101000a900473ffffffffffffffffffffffffffffffffffffffff1673ffffffffffffffffffffffffffffffffffffffff167f1b5704a643da027e21a3d58ff2d26bc3db24c3c2d0a8d4829727479a33bbd1905f806001858154811061059757610596611147565b5b905f5260205f20015f9054906101000a900473ffffffffffffffffffffffffffffffffffffffff1673ffffffffffffffffffffffffffffffffffffffff1673ffffffffffffffffffffffffffffffffffffffff1681526020019081526020015f20600301546040516106099190610d58565b60405180910390a25b808061061d90611174565b9150506103de565b50565b60018181548110610637575f80fd5b905f5260205f20015f915054906101000a900473ffffffffffffffffffffffffffffffffffffffff1681565b5f805f8473ffffffffffffffffffffffffffffffffffffffff1673ffffffffffffffffffffffffffffffffffffffff1681526020019081526020015f206002015f9054906101000a900460ff16156106f0576040517f08c379a00000000000000000000000000000000000000000000000000000000081526004016106e790611205565b60405180910390fd5b8273ffffffffffffffffffffffffffffffffffffffff167f4f50ec1fd22bf51646b9342c5e5d03342614f3cefb0746d2e7f22bd732851787836040516107369190610d20565b60405180910390a260405180608001604052808473ffffffffffffffffffffffffffffffffffffffff1681526020018381526020016001151581526020016301e13380426107849190611114565b8152505f808573ffffffffffffffffffffffffffffffffffffffff1673ffffffffffffffffffffffffffffffffffffffff1681526020019081526020015f205f820151815f015f6101000a81548173ffffffffffffffffffffffffffffffffffffffff021916908373ffffffffffffffffffffffffffffffffffffffff160217905550602082015181600101908161081c919061141d565b506040820151816002015f6101000a81548160ff0219169083151502179055506060820151816003015590505061085283610b9d565b5f808473ffffffffffffffffffffffffffffffffffffffff1673ffffffffffffffffffffffffffffffffffffffff1681526020019081526020015f206002015f9054906101000a900460ff16905092915050565b60605f808473ffffffffffffffffffffffffffffffffffffffff1673ffffffffffffffffffffffffffffffffffffffff1681526020019081526020015f206002015f9054906101000a900460ff16610933576040517f08c379a000000000000000000000000000000000000000000000000000000000815260040161092a9061103b565b60405180910390fd5b815f808573ffffffffffffffffffffffffffffffffffffffff1673ffffffffffffffffffffffffffffffffffffffff1681526020019081526020015f20600101908161097f919061141d565b508273ffffffffffffffffffffffffffffffffffffffff167fbf58b79fbefbdb7290ace7204e8623738f687a5943c1b9305449113c8fdc0a97836040516109c69190610d20565b60405180910390a25f808473ffffffffffffffffffffffffffffffffffffffff1673ffffffffffffffffffffffffffffffffffffffff1681526020019081526020015f206001018054610a1890611250565b80601f0160208091040260200160405190810160405280929190818152602001828054610a4490611250565b8015610a8f5780601f10610a6657610100808354040283529160200191610a8f565b820191905f5260205f20905b815481529060010190602001808311610a7257829003601f168201915b5050505050905092915050565b5f602052805f5260405f205f91509050805f015f9054906101000a900473ffffffffffffffffffffffffffffffffffffffff1690806001018054610adf90611250565b80601f0160208091040260200160405190810160405280929190818152602001828054610b0b90611250565b8015610b565780601f10610b2d57610100808354040283529160200191610b56565b820191905f5260205f20905b815481529060010190602001808311610b3957829003601f168201915b505050505090806002015f9054906101000a900460ff16908060030154905084565b60035f9054906101000a900473ffffffffffffffffffffffffffffffffffffffff1681565b600181908060018154018082558091505060019003905f5260205f20015f9091909190916101000a81548173ffffffffffffffffffffffffffffffffffffffff021916908373ffffffffffffffffffffffffffffffffffffffff16021790555050565b5f604051905090565b5f80fd5b5f80fd5b5f73ffffffffffffffffffffffffffffffffffffffff82169050919050565b5f610c3a82610c11565b9050919050565b610c4a81610c30565b8114610c54575f80fd5b50565b5f81359050610c6581610c41565b92915050565b5f60208284031215610c8057610c7f610c09565b5b5f610c8d84828501610c57565b91505092915050565b5f81519050919050565b5f82825260208201905092915050565b5f5b83811015610ccd578082015181840152602081019050610cb2565b5f8484015250505050565b5f601f19601f8301169050919050565b5f610cf282610c96565b610cfc8185610ca0565b9350610d0c818560208601610cb0565b610d1581610cd8565b840191505092915050565b5f6020820190508181035f830152610d388184610ce8565b905092915050565b5f819050919050565b610d5281610d40565b82525050565b5f602082019050610d6b5f830184610d49565b92915050565b610d7a81610d40565b8114610d84575f80fd5b50565b5f81359050610d9581610d71565b92915050565b5f60208284031215610db057610daf610c09565b5b5f610dbd84828501610d87565b91505092915050565b610dcf81610c30565b82525050565b5f602082019050610de85f830184610dc6565b92915050565b5f80fd5b5f80fd5b7f4e487b71000000000000000000000000000000000000000000000000000000005f52604160045260245ffd5b610e2c82610cd8565b810181811067ffffffffffffffff82111715610e4b57610e4a610df6565b5b80604052505050565b5f610e5d610c00565b9050610e698282610e23565b919050565b5f67ffffffffffffffff821115610e8857610e87610df6565b5b610e9182610cd8565b9050602081019050919050565b828183375f83830152505050565b5f610ebe610eb984610e6e565b610e54565b905082815260208101848484011115610eda57610ed9610df2565b5b610ee5848285610e9e565b509392505050565b5f82601f830112610f0157610f00610dee565b5b8135610f11848260208601610eac565b91505092915050565b5f8060408385031215610f3057610f2f610c09565b5b5f610f3d85828601610c57565b925050602083013567ffffffffffffffff811115610f5e57610f5d610c0d565b5b610f6a85828601610eed565b9150509250929050565b5f8115159050919050565b610f8881610f74565b82525050565b5f602082019050610fa15f830184610f7f565b92915050565b5f608082019050610fba5f830187610dc6565b8181036020830152610fcc8186610ce8565b9050610fdb6040830185610f7f565b610fe86060830184610d49565b95945050505050565b7f436c69656e7420646f6573206e6f7420657869737400000000000000000000005f82015250565b5f611025601583610ca0565b915061103082610ff1565b602082019050919050565b5f6020820190508181035f83015261105281611019565b9050919050565b7f596f7520617265206e6f7420617574686f72697a656420746f207573652074685f8201527f69732066756e6374696f6e000000000000000000000000000000000000000000602082015250565b5f6110b3602b83610ca0565b91506110be82611059565b604082019050919050565b5f6020820190508181035f8301526110e0816110a7565b9050919050565b7f4e487b71000000000000000000000000000000000000000000000000000000005f52601160045260245ffd5b5f61111e82610d40565b915061112983610d40565b9250828201905080821115611141576111406110e7565b5b92915050565b7f4e487b71000000000000000000000000000000000000000000000000000000005f52603260045260245ffd5b5f61117e82610d40565b91507fffffffffffffffffffffffffffffffffffffffffffffffffffffffffffffffff82036111b0576111af6110e7565b5b600182019050919050565b7f4163636f756e7420616c726561647920657869737473000000000000000000005f82015250565b5f6111ef601683610ca0565b91506111fa826111bb565b602082019050919050565b5f6020820190508181035f83015261121c816111e3565b9050919050565b7f4e487b71000000000000000000000000000000000000000000000000000000005f52602260045260245ffd5b5f600282049050600182168061126757607f821691505b60208210810361127a57611279611223565b5b50919050565b5f819050815f5260205f209050919050565b5f6020601f8301049050919050565b5f82821b905092915050565b5f600883026112dc7fffffffffffffffffffffffffffffffffffffffffffffffffffffffffffffffff826112a1565b6112e686836112a1565b95508019841693508086168417925050509392505050565b5f819050919050565b5f61132161131c61131784610d40565b6112fe565b610d40565b9050919050565b5f819050919050565b61133a83611307565b61134e61134682611328565b8484546112ad565b825550505050565b5f90565b611362611356565b61136d818484611331565b505050565b5b81811015611390576113855f8261135a565b600181019050611373565b5050565b601f8211156113d5576113a681611280565b6113af84611292565b810160208510156113be578190505b6113d26113ca85611292565b830182611372565b50505b505050565b5f82821c905092915050565b5f6113f55f19846008026113da565b1980831691505092915050565b5f61140d83836113e6565b9150826002028217905092915050565b61142682610c96565b67ffffffffffffffff81111561143f5761143e610df6565b5b6114498254611250565b611454828285611394565b5f60209050601f831160018114611485575f8415611473578287015190505b61147d8582611402565b8655506114e4565b601f19841661149386611280565b5f5b828110156114ba57848901518255600182019150602085019450602081019050611495565b868310156114d757848901516114d3601f8916826113e6565b8355505b6001600288020188555050505b50505050505056fea2646970667358221220c03cd0361de3ae5ba3261e6381b15d31fa7dff12a7bb6d19807e3e0d392e115064736f6c63430008150033",
  "immutableReferences": {},
  "source": "// SPDX-License-Identifier: MIT\r\npragma solidity ^0.8.0;\r\n\r\ncontract KYC {\r\n    struct Client {\r\n        address userID;\r\n        string report_uri;\r\n        bool used;\r\n        uint end_date;\r\n    }\r\n\r\n    // Stores userID => Client\r\n    mapping(address => Client) public Clientdatabase;\r\n\r\n    address[] public clientList; // List of clients to loop through for expiring KYC reports\r\n\r\n    uint public start_date; // Start date of KYC\r\n    address public admin; // Contract administrator\r\n\r\n    // Events for tracking changes\r\n    event NewClient(address indexed userID, string report_uri);\r\n    event ChangeClientInfo(address indexed userID, string report_uri);\r\n    event FlagExpiringKYC(address indexed client, uint client_end_date);\r\n\r\n    // Constructor to set the admin\r\n    constructor() {\r\n        admin = msg.sender;\r\n        start_date = block.timestamp;  // Set start date during contract deployment\r\n    }\r\n\r\n    // Register a new client\r\n    function registerKYC(address userID, string memory report_uri) external returns (bool) {\r\n        require(!Clientdatabase[userID].used, \"Account already exists\");\r\n\r\n        // Permanently associates the report_uri with the userID on-chain via Events\r\n        emit NewClient(userID, report_uri);\r\n\r\n        Clientdatabase[userID] = Client(userID, report_uri, true, block.timestamp + 365 days);\r\n        appendClientInfo(userID);\r\n\r\n        return Clientdatabase[userID].used;\r\n    }\r\n\r\n    // Update an existing client's KYC\r\n    function updateKYC(address userID, string memory newReportUri) external returns (string memory) {\r\n        require(Clientdatabase[userID].used, \"Client does not exist\");\r\n        Clientdatabase[userID].report_uri = newReportUri;\r\n\r\n        // Permanently associates the new report_uri with the userID on-chain via Events\r\n        emit ChangeClientInfo(userID, newReportUri);\r\n\r\n        return Clientdatabase[userID].report_uri;\r\n    }\r\n\r\n    // Check validity of a client's KYC\r\n    function checkValidity(address userID) external view returns (string memory) {\r\n        require(Clientdatabase[userID].used, \"Client does not exist\");\r\n\r\n        if (block.timestamp > Clientdatabase[userID].end_date) {\r\n            return \"KYC report has expired!\";\r\n        } else {\r\n            return \"KYC report is valid!\";\r\n        }\r\n    }\r\n\r\n    // Add each new client to the client list\r\n    function appendClientInfo(address client) private {\r\n        clientList.push(client);\r\n    }\r\n\r\n    // Get the count of registered clients\r\n    function getClientCount() external view returns (uint count) {\r\n        return clientList.length;\r\n    }\r\n\r\n    // Iterate through the client list to find expiring KYC reports\r\n    function clientLoop() external {\r\n        require(msg.sender == admin, \"You are not authorized to use this function\");\r\n\r\n        for (uint i = 0; i < clientList.length; i++) {\r\n            if (\r\n                Clientdatabase[clientList[i]].end_date < block.timestamp + 30 days &&\r\n                Clientdatabase[clientList[i]].end_date > block.timestamp + 1 days\r\n            ) {\r\n                emit FlagExpiringKYC(clientList[i], Clientdatabase[clientList[i]].end_date);\r\n            }\r\n        }\r\n    }\r\n}\r\n",
  "sourcePath": "C:\\Users\\Himanshu Sugha\\Desktop\\AMLedger\\contracts\\kyccontract.sol",
  "compiler": {
    "name": "solc",
    "version": "0.8.21+commit.d9974bed.Emscripten.clang"
  },
  "schemaVersion": "3.4.16",
  "updatedAt": "2024-12-18T09:44:16.557Z",
  "devdoc": {
    "kind": "dev",
    "methods": {},
    "version": 1
  },
  "userdoc": {
    "kind": "user",
    "methods": {},
    "version": 1
  }
}