{
  "contractName": "KYC",
  "abi": [
    {
      "inputs": [],
      "stateMutability": "nonpayable",
      "type": "constructor"
    },
    {
      "anonymous": false,
      "inputs": [
        {
          "indexed": true,
          "internalType": "address",
          "name": "userID",
          "type": "address"
        },
        {
          "indexed": false,
          "internalType": "string",
          "name": "report_uri",
          "type": "string"
        }
      ],
      "name": "ChangeClientInfo",
      "type": "event"
    },
    {
      "anonymous": false,
      "inputs": [
        {
          "indexed": true,
          "internalType": "address",
          "name": "client",
          "type": "address"
        },
        {
          "indexed": false,
          "internalType": "uint256",
          "name": "client_end_date",
          "type": "uint256"
        }
      ],
      "name": "FlagExpiringKYC",
      "type": "event"
    },
    {
      "anonymous": false,
      "inputs": [
        {
          "indexed": true,
          "internalType": "address",
          "name": "userID",
          "type": "address"
        },
        {
          "indexed": false,
          "internalType": "string",
          "name": "report_uri",
          "type": "string"
        }
      ],
      "name": "NewClient",
      "type": "event"
    },
    {
      "inputs": [
        {
          "internalType": "address",
          "name": "",
          "type": "address"
        }
      ],
      "name": "Clientdatabase",
      "outputs": [
        {
          "internalType": "address",
          "name": "userID",
          "type": "address"
        },
        {
          "internalType": "string",
          "name": "report_uri",
          "type": "string"
        },
        {
          "internalType": "bool",
          "name": "used",
          "type": "bool"
        },
        {
          "internalType": "uint256",
          "name": "end_date",
          "type": "uint256"
        }
      ],
      "stateMutability": "view",
      "type": "function",
      "constant": true
    },
    {
      "inputs": [],
      "name": "admin",
      "outputs": [
        {
          "internalType": "address",
          "name": "",
          "type": "address"
        }
      ],
      "stateMutability": "view",
      "type": "function",
      "constant": true
    },
    {
      "inputs": [
        {
          "internalType": "uint256",
          "name": "",
          "type": "uint256"
        }
      ],
      "name": "clientList",
      "outputs": [
        {
          "internalType": "address",
          "name": "",
          "type": "address"
        }
      ],
      "stateMutability": "view",
      "type": "function",
      "constant": true
    },
    {
      "inputs": [],
      "name": "start_date",
      "outputs": [
        {
          "internalType": "uint256",
          "name": "",
          "type": "uint256"
        }
      ],
      "stateMutability": "view",
      "type": "function",
      "constant": true
    },
    {
      "inputs": [
        {
          "internalType": "address",
          "name": "userID",
          "type": "address"
        },
        {
          "internalType": "string",
          "name": "report_uri",
          "type": "string"
        }
      ],
      "name": "registerKYC",
      "outputs": [
        {
          "internalType": "bool",
          "name": "",
          "type": "bool"
        }
      ],
      "stateMutability": "nonpayable",
      "type": "function"
    },
    {
      "inputs": [
        {
          "internalType": "address",
          "name": "userID",
          "type": "address"
        },
        {
          "internalType": "string",
          "name": "newReportUri",
          "type": "string"
        }
      ],
      "name": "updateKYC",
      "outputs": [
        {
          "internalType": "string",
          "name": "",
          "type": "string"
        }
      ],
      "stateMutability": "nonpayable",
      "type": "function"
    },
    {
      "inputs": [
        {
          "internalType": "address",
          "name": "userID",
          "type": "address"
        }
      ],
      "name": "checkValidity",
      "outputs": [
        {
          "internalType": "string",
          "name": "",
          "type": "string"
        }
      ],
      "stateMutability": "view",
      "type": "function",
      "constant": true
    },
    {
      "inputs": [],
      "name": "getClientCount",
      "outputs": [
        {
          "internalType": "uint256",
          "name": "count",
          "type": "uint256"
        }
      ],
      "stateMutability": "view",
      "type": "function",
      "constant": true
    },
    {
      "inputs": [],
      "name": "clientLoop",
      "outputs": [],
      "stateMutability": "nonpayable",
      "type": "function"
    }
  ],
  "bytecode": "0x608060405234801561001057600080fd5b5033600360006101000a81548173ffffffffffffffffffffffffffffffffffffffff021916908373ffffffffffffffffffffffffffffffffffffffff1602179055504260028190555061140a806100686000396000f3fe608060405234801561001057600080fd5b50600436106100935760003560e01c80636a2fe7a5116100665780636a2fe7a51461010e578063a52b52301461013e578063b2ef42231461016e578063be2077871461019e578063f851a440146101d157610093565b8063171ee9f31461009857806327d795d7146100c85780635a81018a146100e65780636a15ceee14610104575b600080fd5b6100b260048036038101906100ad9190610e1f565b6101ef565b6040516100bf9190611093565b60405180910390f35b6100d0610343565b6040516100dd9190611115565b60405180910390f35b6100ee610349565b6040516100fb9190611115565b60405180910390f35b61010c610356565b005b61012860048036038101906101239190610e9c565b6106dd565b6040516101359190611011565b60405180910390f35b61015860048036038101906101539190610e48565b61071c565b6040516101659190611078565b60405180910390f35b61018860048036038101906101839190610e48565b610973565b6040516101959190611093565b60405180910390f35b6101b860048036038101906101b39190610e1f565b610b79565b6040516101c8949392919061102c565b60405180910390f35b6101d9610c5e565b6040516101e69190611011565b60405180910390f35b60606000808373ffffffffffffffffffffffffffffffffffffffff1673ffffffffffffffffffffffffffffffffffffffff16815260200190815260200160002060020160009054906101000a900460ff1661027f576040517f08c379a0000000000000000000000000000000000000000000000000000000008152600401610276906110b5565b60405180910390fd5b6000808373ffffffffffffffffffffffffffffffffffffffff1673ffffffffffffffffffffffffffffffffffffffff16815260200190815260200160002060030154421115610305576040518060400160405280601781526020017f4b5943207265706f727420686173206578706972656421000000000000000000815250905061033e565b6040518060400160405280601481526020017f4b5943207265706f72742069732076616c69642100000000000000000000000081525090505b919050565b60025481565b6000600180549050905090565b600360009054906101000a900473ffffffffffffffffffffffffffffffffffffffff1673ffffffffffffffffffffffffffffffffffffffff163373ffffffffffffffffffffffffffffffffffffffff16146103e6576040517f08c379a00000000000000000000000000000000000000000000000000000000081526004016103dd906110d5565b60405180910390fd5b60005b6001805490508110156106da5762278d004261040591906111ad565b60008060018481548110610442577f4e487b7100000000000000000000000000000000000000000000000000000000600052603260045260246000fd5b9060005260206000200160009054906101000a900473ffffffffffffffffffffffffffffffffffffffff1673ffffffffffffffffffffffffffffffffffffffff1673ffffffffffffffffffffffffffffffffffffffff1681526020019081526020016000206003015410801561056a575062015180426104c291906111ad565b600080600184815481106104ff577f4e487b7100000000000000000000000000000000000000000000000000000000600052603260045260246000fd5b9060005260206000200160009054906101000a900473ffffffffffffffffffffffffffffffffffffffff1673ffffffffffffffffffffffffffffffffffffffff1673ffffffffffffffffffffffffffffffffffffffff16815260200190815260200160002060030154115b156106c757600181815481106105a9577f4e487b7100000000000000000000000000000000000000000000000000000000600052603260045260246000fd5b9060005260206000200160009054906101000a900473ffffffffffffffffffffffffffffffffffffffff1673ffffffffffffffffffffffffffffffffffffffff167f1b5704a643da027e21a3d58ff2d26bc3db24c3c2d0a8d4829727479a33bbd19060008060018581548110610648577f4e487b7100000000000000000000000000000000000000000000000000000000600052603260045260246000fd5b9060005260206000200160009054906101000a900473ffffffffffffffffffffffffffffffffffffffff1673ffffffffffffffffffffffffffffffffffffffff1673ffffffffffffffffffffffffffffffffffffffff168152602001908152602001600020600301546040516106be9190611115565b60405180910390a25b80806106d2906112bf565b9150506103e9565b50565b600181815481106106ed57600080fd5b906000526020600020016000915054906101000a900473ffffffffffffffffffffffffffffffffffffffff1681565b60008060008473ffffffffffffffffffffffffffffffffffffffff1673ffffffffffffffffffffffffffffffffffffffff16815260200190815260200160002060020160009054906101000a900460ff16156107ad576040517f08c379a00000000000000000000000000000000000000000000000000000000081526004016107a4906110f5565b60405180910390fd5b8273ffffffffffffffffffffffffffffffffffffffff167f4f50ec1fd22bf51646b9342c5e5d03342614f3cefb0746d2e7f22bd732851787836040516107f39190611093565b60405180910390a260405180608001604052808473ffffffffffffffffffffffffffffffffffffffff1681526020018381526020016001151581526020016301e133804261084191906111ad565b8152506000808573ffffffffffffffffffffffffffffffffffffffff1673ffffffffffffffffffffffffffffffffffffffff16815260200190815260200160002060008201518160000160006101000a81548173ffffffffffffffffffffffffffffffffffffffff021916908373ffffffffffffffffffffffffffffffffffffffff16021790555060208201518160010190805190602001906108e5929190610cea565b5060408201518160020160006101000a81548160ff0219169083151502179055506060820151816003015590505061091c83610c84565b6000808473ffffffffffffffffffffffffffffffffffffffff1673ffffffffffffffffffffffffffffffffffffffff16815260200190815260200160002060020160009054906101000a900460ff16905092915050565b60606000808473ffffffffffffffffffffffffffffffffffffffff1673ffffffffffffffffffffffffffffffffffffffff16815260200190815260200160002060020160009054906101000a900460ff16610a03576040517f08c379a00000000000000000000000000000000000000000000000000000000081526004016109fa906110b5565b60405180910390fd5b816000808573ffffffffffffffffffffffffffffffffffffffff1673ffffffffffffffffffffffffffffffffffffffff1681526020019081526020016000206001019080519060200190610a58929190610cea565b508273ffffffffffffffffffffffffffffffffffffffff167fbf58b79fbefbdb7290ace7204e8623738f687a5943c1b9305449113c8fdc0a9783604051610a9f9190611093565b60405180910390a26000808473ffffffffffffffffffffffffffffffffffffffff1673ffffffffffffffffffffffffffffffffffffffff1681526020019081526020016000206001018054610af39061128d565b80601f0160208091040260200160405190810160405280929190818152602001828054610b1f9061128d565b8015610b6c5780601f10610b4157610100808354040283529160200191610b6c565b820191906000526020600020905b815481529060010190602001808311610b4f57829003601f168201915b5050505050905092915050565b60006020528060005260406000206000915090508060000160009054906101000a900473ffffffffffffffffffffffffffffffffffffffff1690806001018054610bc29061128d565b80601f0160208091040260200160405190810160405280929190818152602001828054610bee9061128d565b8015610c3b5780601f10610c1057610100808354040283529160200191610c3b565b820191906000526020600020905b815481529060010190602001808311610c1e57829003601f168201915b5050505050908060020160009054906101000a900460ff16908060030154905084565b600360009054906101000a900473ffffffffffffffffffffffffffffffffffffffff1681565b6001819080600181540180825580915050600190039060005260206000200160009091909190916101000a81548173ffffffffffffffffffffffffffffffffffffffff021916908373ffffffffffffffffffffffffffffffffffffffff16021790555050565b828054610cf69061128d565b90600052602060002090601f016020900481019282610d185760008555610d5f565b82601f10610d3157805160ff1916838001178555610d5f565b82800160010185558215610d5f579182015b82811115610d5e578251825591602001919060010190610d43565b5b509050610d6c9190610d70565b5090565b5b80821115610d89576000816000905550600101610d71565b5090565b6000610da0610d9b84611161565b611130565b905082815260208101848484011115610db857600080fd5b610dc384828561124b565b509392505050565b600081359050610dda816113a6565b92915050565b600082601f830112610df157600080fd5b8135610e01848260208601610d8d565b91505092915050565b600081359050610e19816113bd565b92915050565b600060208284031215610e3157600080fd5b6000610e3f84828501610dcb565b91505092915050565b60008060408385031215610e5b57600080fd5b6000610e6985828601610dcb565b925050602083013567ffffffffffffffff811115610e8657600080fd5b610e9285828601610de0565b9150509250929050565b600060208284031215610eae57600080fd5b6000610ebc84828501610e0a565b91505092915050565b610ece81611203565b82525050565b610edd81611215565b82525050565b6000610eee82611191565b610ef8818561119c565b9350610f0881856020860161125a565b610f1181611395565b840191505092915050565b6000610f2960158361119c565b91507f436c69656e7420646f6573206e6f7420657869737400000000000000000000006000830152602082019050919050565b6000610f69602b8361119c565b91507f596f7520617265206e6f7420617574686f72697a656420746f2075736520746860008301527f69732066756e6374696f6e0000000000000000000000000000000000000000006020830152604082019050919050565b6000610fcf60168361119c565b91507f4163636f756e7420616c726561647920657869737473000000000000000000006000830152602082019050919050565b61100b81611241565b82525050565b60006020820190506110266000830184610ec5565b92915050565b60006080820190506110416000830187610ec5565b81810360208301526110538186610ee3565b90506110626040830185610ed4565b61106f6060830184611002565b95945050505050565b600060208201905061108d6000830184610ed4565b92915050565b600060208201905081810360008301526110ad8184610ee3565b905092915050565b600060208201905081810360008301526110ce81610f1c565b9050919050565b600060208201905081810360008301526110ee81610f5c565b9050919050565b6000602082019050818103600083015261110e81610fc2565b9050919050565b600060208201905061112a6000830184611002565b92915050565b6000604051905081810181811067ffffffffffffffff8211171561115757611156611366565b5b8060405250919050565b600067ffffffffffffffff82111561117c5761117b611366565b5b601f19601f8301169050602081019050919050565b600081519050919050565b600082825260208201905092915050565b60006111b882611241565b91506111c383611241565b9250827fffffffffffffffffffffffffffffffffffffffffffffffffffffffffffffffff038211156111f8576111f7611308565b5b828201905092915050565b600061120e82611221565b9050919050565b60008115159050919050565b600073ffffffffffffffffffffffffffffffffffffffff82169050919050565b6000819050919050565b82818337600083830152505050565b60005b8381101561127857808201518184015260208101905061125d565b83811115611287576000848401525b50505050565b600060028204905060018216806112a557607f821691505b602082108114156112b9576112b8611337565b5b50919050565b60006112ca82611241565b91507fffffffffffffffffffffffffffffffffffffffffffffffffffffffffffffffff8214156112fd576112fc611308565b5b600182019050919050565b7f4e487b7100000000000000000000000000000000000000000000000000000000600052601160045260246000fd5b7f4e487b7100000000000000000000000000000000000000000000000000000000600052602260045260246000fd5b7f4e487b7100000000000000000000000000000000000000000000000000000000600052604160045260246000fd5b6000601f19601f8301169050919050565b6113af81611203565b81146113ba57600080fd5b50565b6113c681611241565b81146113d157600080fd5b5056fea264697066735822122037e033c248396db9596b3cbb3ce641a12b4b05900544df2775928533f2e16f7064736f6c63430008000033",
  "immutableReferences": {},
  "source": "// SPDX-License-Identifier: MIT\r\npragma solidity ^0.8.0;\r\n\r\ncontract KYC {\r\n    struct Client {\r\n        address userID;\r\n        string report_uri;\r\n        bool used;\r\n        uint end_date;\r\n    }\r\n\r\n    // Stores userID => Client\r\n    mapping(address => Client) public Clientdatabase;\r\n\r\n    address[] public clientList; // List of clients to loop through for expiring KYC reports\r\n\r\n    uint public start_date; // Start date of KYC\r\n    address public admin; // Contract administrator\r\n\r\n    // Events for tracking changes\r\n    event NewClient(address indexed userID, string report_uri);\r\n    event ChangeClientInfo(address indexed userID, string report_uri);\r\n    event FlagExpiringKYC(address indexed client, uint client_end_date);\r\n\r\n    // Constructor to set the admin\r\n    constructor() {\r\n        admin = msg.sender;\r\n        start_date = block.timestamp;  // Set start date during contract deployment\r\n    }\r\n\r\n    // Register a new client\r\n    function registerKYC(address userID, string memory report_uri) external returns (bool) {\r\n        require(!Clientdatabase[userID].used, \"Account already exists\");\r\n\r\n        // Permanently associates the report_uri with the userID on-chain via Events\r\n        emit NewClient(userID, report_uri);\r\n\r\n        Clientdatabase[userID] = Client(userID, report_uri, true, block.timestamp + 365 days);\r\n        appendClientInfo(userID);\r\n\r\n        return Clientdatabase[userID].used;\r\n    }\r\n\r\n    // Update an existing client's KYC\r\n    function updateKYC(address userID, string memory newReportUri) external returns (string memory) {\r\n        require(Clientdatabase[userID].used, \"Client does not exist\");\r\n        Clientdatabase[userID].report_uri = newReportUri;\r\n\r\n        // Permanently associates the new report_uri with the userID on-chain via Events\r\n        emit ChangeClientInfo(userID, newReportUri);\r\n\r\n        return Clientdatabase[userID].report_uri;\r\n    }\r\n\r\n    // Check validity of a client's KYC\r\n    function checkValidity(address userID) external view returns (string memory) {\r\n        require(Clientdatabase[userID].used, \"Client does not exist\");\r\n\r\n        if (block.timestamp > Clientdatabase[userID].end_date) {\r\n            return \"KYC report has expired!\";\r\n        } else {\r\n            return \"KYC report is valid!\";\r\n        }\r\n    }\r\n\r\n    // Add each new client to the client list\r\n    function appendClientInfo(address client) private {\r\n        clientList.push(client);\r\n    }\r\n\r\n    // Get the count of registered clients\r\n    function getClientCount() external view returns (uint count) {\r\n        return clientList.length;\r\n    }\r\n\r\n    // Iterate through the client list to find expiring KYC reports\r\n    function clientLoop() external {\r\n        require(msg.sender == admin, \"You are not authorized to use this function\");\r\n\r\n        for (uint i = 0; i < clientList.length; i++) {\r\n            if (\r\n                Clientdatabase[clientList[i]].end_date < block.timestamp + 30 days &&\r\n                Clientdatabase[clientList[i]].end_date > block.timestamp + 1 days\r\n            ) {\r\n                emit FlagExpiringKYC(clientList[i], Clientdatabase[clientList[i]].end_date);\r\n            }\r\n        }\r\n    }\r\n}\r\n",
  "sourcePath": "C:\\Users\\Himanshu Sugha\\Desktop\\AMLedger\\contracts\\contracts\\kyccontract.sol",
  "compiler": {
    "name": "solc",
    "version": "0.8.0+commit.c7dfd78e.Emscripten.clang"
  },
  "schemaVersion": "3.4.16",
  "updatedAt": "2024-12-18T10:18:23.478Z",
  "networkType": "ethereum",
  "devdoc": {
    "kind": "dev",
    "methods": {},
    "version": 1
  },
  "userdoc": {
    "kind": "user",
    "methods": {},
    "version": 1
  }
}